:020000040000FA
:060000000A128A11FC2F18
:100F58000A128A11C0270A128A1183120313851DE7
:100F6800B62FB72FB12F0A128A11D6270A128A1163
:100F7800B12F0A128A1100288316031788018901E4
:100F8800831603138801870105108510051185153F
:100F980005168516831203138801870105110510AC
:100FA800851008008312031305150730F200173067
:100FB800F1006A30F000F00BDF2FF10BDF2FF20B9E
:100FC800DF2F000083120313051185140730F20088
:100FD8001730F1006A30F000F00BF02FF10BF02F12
:100FE800F20BF02F0000831203138510051408007C
:080FF80083010A128A11AC2FDB
:04400E00F120FF3F5F
:00000001FF
