:020000040000FA
:060000000A128A11FC2F18
:100E06008316031788018901831603138801870156
:100E16000510851005118515051685168312031311
:100E26008801870105110510851008008312031338
:100E3600051505100730F2001730F1006A30F00092
:100E4600F00B232FF10B232FF20B232F000083121D
:100E56000313051185140730F2001730F1006A30CC
:100E6600F000F00B342FF10B342FF20B342F00006F
:100E76008312031385100514080083120313070D4C
:100E8600070D0139F000070EF100F10C710C013964
:100E9600F200070EF300730C0139F400070E013956
:100EA600F500070CF600F60C760C0139F700070C76
:100EB600F800780C0139F900070C0139FA00070827
:100EC60001397A0479047704750474047204700491
:100ED600031D6E2F6F2F712F0714752F0708F00053
:100EE60070078700080083120313080D080D0139E7
:100EF600F000080EF100F10C710C0139F200080E39
:100F0600F300730C0139F400080E0139F500080CE2
:100F1600F600F60C760C0139F700080CF800780C90
:100F26000139F900080C0139FA00080801397A0478
:100F3600790477047504740472047004031DA42FE5
:100F4600A52FA72F0814AB2F0808F00070078800FC
:100F560008000A128A1103270A128A118312031340
:100F6600851DB62FB72FBC2F0A128A1119270A1210
:100F76008A11013083120313051C0039051E00393E
:100F860000380319C72FC82FDA2F0A128A114027F3
:100F96000A128A110630FD001330FC00AD30FB004A
:100FA600FB0BD32FFC0BD32FFD0BD32FDA2F0130E6
:100FB60083120313051C0039851E003900380319F6
:100FC600E52FE62FB12F0A128A1176270A128A1107
:100FD6000630FD001330FC00AD30FB00FB0BF12F9B
:100FE600FC0BF12FFD0BF12FF82FB12F0A128A11EE
:0A0FF600002883010A128A11AC2FB3
:04400E00F120FF3F5F
:00000001FF
