:020000040000FA
:060000000A128A11FC2F18
:100D960083160317880189018316031388018701C7
:100DA600051085100511851505168516091089107B
:100DB6008312031309108910880187010511051094
:100DC6008510080083120313880187010910891012
:100DD600051505100730F2001730F1006A30F000F3
:100DE600F00BF32EF10BF32EF20BF32E0000831211
:100DF6000313051185140730F2001730F1006A302D
:100E0600F000F00B042FF10B042FF20B042F00005F
:100E16008312031385100514080083120313070DAC
:100E2600070D0139F000070EF100F10C710C0139C4
:100E3600F200070EF300730C0139F400070E0139B6
:100E4600F500070CF600F60C760C0139F700070CD6
:100E5600F800780C0139F900070C0139FA00070887
:100E660001397A04790477047504740472047004F1
:100E7600031D3E2F3F2F412F0714452F0708F00073
:100E860070078700080083120313080D080D013947
:100E9600F000080EF100F10C710C0139F200080E99
:100EA600F300730C0139F400080E0139F500080C43
:100EB600F600F60C760C0139F700080CF800780CF1
:100EC6000139F900080C0139FA00080801397A04D9
:100ED600790477047504740472047004031D742F76
:100EE600752F772F08147B2F0808F00070078800ED
:100EF60008000A128A11CB260A128A1183120313DA
:100F0600851D862F872F8C2F0A128A11E5260A1235
:100F16008A11013083120313051C0039051E00399E
:100F260000380319972F982FAA2F0A128A11102713
:100F36000A128A110630FD001330FC00AD30FB00AA
:100F4600FB0BA32FFC0BA32FFD0BA32FAA2F013006
:100F560083120313051C0039851E00390038031956
:100F6600B52FB62FC82F0A128A1146270A128A11E0
:100F76000630FD001330FC00AD30FB00FB0BC12F2B
:100F8600FC0BC12FFD0BC12FC82F83120313871F24
:100F9600CD2FCE2FE12F0430FD000C30FC00333076
:100FA600FB00FB0BD42FFC0BD42FFD0BD42FDB2F18
:100FB600831203138713880109140510881FE42F71
:100FC600E52F812F0430FD000C30FC003330FB0090
:100FD600FB0BEB2FFC0BEB2FFD0BEB2FF22F8312F2
:100FE60003138813870189140510812F0A128A11A9
:0A0FF600002883010A128A117C2FE3
:04400E00F120FF3F5F
:00000001FF
